:0200000460009A
:10000000464346420004015600000000030303007B
:1000100001000000010E0000881500000000000033
:1000200000000000000000000000000000000000D0
:1000300000000000000000000000000000000000C0
:10004000500000000108080000000000000000004F
:100050000000400000000000000000000000000060
:100060000000000000000000000000000000000090
:10007000000000000000000014000000000000006C
:100080000B07208B25B380A70000000000000000B4
:10009000050708B301A700000000000000000000F1
:1000A0000000000000000000000000000000000050
:1000B0000604000000000000000000000000000036
:1000C0000000000000000000000000000000000030
:1000D0000000000000000000000000000000000020
:1000E0000000000000000000000000000000000010
:1000F0000000000000000000000000000000000000
:1001000000000000000000000000000000000000EF
:1001100000000000000000000000000000000000DF
:1001200000000000000000000000000000000000CF
:1001300000000000000000000000000000000000BF
:1001400000000000000000000000000000000000AF
:10015000000000000000000000000000000000009F
:1001600071040204022000000000000000000000F2
:10017000000000000000000000000000000000007F
:10018000000000000000000000000000000000006F
:10019000000000000000000000000000000000005F
:1001A000000000000000000000000000000000004F
:1001B000000000000000000000000000000000003F
:1001C000000100000010000001010000000000001C
:1001D000001000000000000000000000000000000F
:1001E000000000000000000000000000000000000F
:1001F00000000000000000000000000000000000FF
:10100000D1002041A52600600000000030100060E3
:1010100020100060001000600000000000000000D0
:10102000000000600000400000000000FFFFFFFF24
:10103000D2043041CC03AC04400FC068FFFFFFFF77
:10104000400FC06CFFFFFFFF400FC070FFFFFFFFAE
:10105000400FC074FFFFFFFF400FC078FFFFFFFF8E
:10106000400FC07CFFFFFFFF400FC080FFFFFFFF6E
:10107000400D803000002001400D8100001D000067
:10108000400FC01400010D40401F801400000000FC
:10109000401F801800000000401F801C000000005E
:1010A000401F802000000000401F8024000000003E
:1010B000401F802800000000401F802C000000001E
:1010C000401F803000000000401F803400000000FE
:1010D000401F803800000000401F803C00000000DE
:1010E000401F804000000000401F804400000000BE
:1010F000401F804800000000401F804C000000009E
:10110000401F805000000000401F8054000000007D
:10111000401F805800000000401F805C000000005D
:10112000401F806000000000401F8064000000003D
:10113000401F806800000000401F806C000000001D
:10114000401F807000000000401F807400000000FD
:10115000401F807800000000401F807C00000000DD
:10116000401F808000000000401F808400000000BD
:10117000401F808800000000401F808C000000009D
:10118000401F809000000000401F8094000000007D
:10119000401F809800000000401F809C000000005D
:1011A000401F80A000000000401F80A4000000003D
:1011B000401F80A800000000401F80AC000000001D
:1011C000401F80B000000010401F80B400000000ED
:1011D000401F80B800000000401F8204000110F989
:1011E000401F8208000110F9401F820C000110F915
:1011F000401F8210000110F9401F8214000110F9F5
:10120000401F8218000110F9401F821C000110F9D4
:10121000401F8220000110F9401F8224000110F9B4
:10122000401F8228000110F9401F822C000110F994
:10123000401F8230000110F9401F8234000110F974
:10124000401F8238000110F9401F823C000110F954
:10125000401F8240000110F9401F8244000110F934
:10126000401F8248000110F9401F824C000110F914
:10127000401F8250000110F9401F8254000110F9F4
:10128000401F8258000110F9401F825C000110F9D4
:10129000401F8260000110F9401F8264000110F9B4
:1012A000401F8268000110F9401F826C000110F994
:1012B000401F8270000110F9401F8274000110F974
:1012C000401F8278000110F9401F827C000110F954
:1012D000401F8280000110F9401F8284000110F934
:1012E000401F8288000110F9401F828C000110F914
:1012F000401F8290000110F9401F8294000110F9F4
:10130000401F8298000110F9401F829C000110F9D3
:10131000401F82A0000110F9401F82A4000110F9B3
:10132000401F82A8000110F9402F000010000004A7
:10133000402F000800030524402F000C060305245D
:10134000402F00108000001B402F00148200001B63
:10135000402F00188400001B402F001C8600001B3B
:10136000402F002090000021402F0024A0000019F1
:10137000402F0028A8000017402F002CA900001BB8
:10138000402F003000000021402F0004000079A809
:10139000402F004000000F31402F004400652922FB
:1013A000402F004800010920402F004C50210A081E
:1013B000402F008000000021402F00840088888892
:1013C000402F009400000002402F00980000000011
:1013D000402F009080000000402F009CA55A000F75
:1013E000CF000C1C402F003C00000001CC00140476
:1013F000402F009080000000402F009CA55A000C58
:10140000CF000C1C402F003C00000001CC00140455
:10141000402F009080000000402F009CA55A000C37
:10142000CF000C1C402F003C00000001CC001C042D
:10143000402F00A000000033402F009080000000EB
:10144000402F009CA55A000ACF000C1C402F003CE6
:1014500000000001CC000C04402F004C50210A0970
:10200000D82F0020A5260060012700604928006025
:1020100000000000000000000000000000000000C0
:102020000000000000000000000000000527006024
:10203000000000000000000007270060119500600C
:102040000D2700600F270060112700601327006034
:102050001527006017270060192700601B27006004
:102060001D2700601F2700602127006023270060D4
:102070002527006027270060292700602B270060A4
:102080002D2700602F270060312700603327006074
:102090001D95006037270060392700603B270060EE
:1020A0003D2700603F270060412700604327006014
:1020B0004527006047270060492700604B270060E4
:1020C0004D2700604F2700605127006053270060B4
:1020D0005527006057270060592700605B27006084
:1020E0005D2700605F270060612700606327006054
:1020F0006527006067270060692700606B27006024
:102100006D2700606F2700607127006073270060F3
:102110007527006077270060792700607B270060C3
:102120007D2700607F270060812700608327006093
:102130008527006087270060892700608B27006063
:102140008D2700608F270060912700609327006033
:102150009527006097270060992700609B27006003
:102160009D2700609F270060A1270060A3270060D3
:10217000A5270060A7270060A9270060AB270060A3
:10218000AD270060AF270060B1270060297E0060A6
:10219000B5270060B7270060B9270060BB27006043
:1021A000BD270060BF270060C1270060C327006013
:1021B000C5270060C7270060C9270060CB270060E3
:1021C000CD270060CF270060D1270060D3270060B3
:1021D000D5270060D7270060D9270060DB27006083
:1021E000DD270060DF270060E1270060E327006053
:1021F000E5270060E727006031490060EB270060B9
:10220000ED270060EF270060F1270060F3270060F2
:10221000F5270060F7270060F9270060FB270060C2
:10222000FD270060FF270060012800600328006090
:102230000528006007280060092800600B2800605E
:102240000D2800600F28006011280060132800602E
:102250001528006017280060192800601B280060FE
:102260001D2800601F2800602128006023280060CE
:102270002528006027280060292800602B2800609E
:102280002D2800602F28006031280060332800606E
:102290003528006037280060392800603B2800603E
:1022A0003D2800603F28006041280060432800600E
:0822B00045280060472800608A
:1022B8004B4B5A6970B594011CD59B6903F4405384
:1022C800B3F5805F75D0B3F5005F6AD0002B5DD0A1
:1022D8000023434A5069C0F3C2600130B3FBF0F0F9
:1022E8003F4B404A5B69C3F382230133B0FBF3F3EE
:1022F800136070BD3C4B3D4D1A681B68D1032FD449
:1023080003F07F0305FB03F56D08374B1A6B1B6B56
:10231800D20334D513F4404F344C18BF0024324E46
:1023280000233249306D326EA0FB010108F075FAC6
:102338002B4A2044936903F44023B3F5002F3CD083
:1023480013D8002BCCD0B3F5802F34D1D6F8003178
:10235800C3F30543B0FBF3F303EBC3035800BFE734
:1023680013F4404F18BF0025CFE7B3F5402F22D113
:10237800136903F007030133B5FBF3F0B0E71C481A
:1023880013F0010F1B4C18BF0446C8E7164A116921
:10239800C8031CD51169154A11F4404F08BF1346EC
:1023A80097E7114A114B126B12F4404F18BF0023E4
:1023B8008FE70E4B8DE7002092E7D6F8003103F047
:1023C8003F03B0FBF3F303EBC303580088E712693C
:1023D800074B12F0020F074A08BF134679E700BF00
:1023E80000C00F40BC02002000800D4000366E0186
:1023F80000A4781F00389C1C704700BF4848494A11
:10240800D0F88830484943F4700370B5C0F8883074
:10241800138923F001031B041B0C13810B8923F080
:1024280001031B041B0C0B811388590705D513885E
:1024380023F004031B041B0C13803B4A13885B071F
:1024480005D5138823F004031B041B0C1380374B9A
:102458001A6896045DD5364A5A60344A4FF6FF73B7
:1024680034499360136823F0A00343F020031360FA
:102478000B68DD0703D50B6823F001030B60284BBD
:102488005A69940315D45A6912F4003211D1BFF372
:102498004F8FBFF36F8FC3F85022BFF34F8FBFF337
:1024A8006F8F5A6942F400325A61BFF34F8FBFF3FE
:1024B8006F8F1B494B69D80328D44B6913F48033B9
:1024C80024D1C1F88430BFF34F8FD1F8805043F640
:1024D800E076C5F34E34C5F3C905640104EA060085
:1024E8002B4640EA8372013BC1F860225A1CF8D19E
:1024F800203C14F1200FF1D1BFF34F8F4B6943F407
:1025080080334B61BFF34F8FBFF36F8FFFF774FFBB
:1025180070BD4CF220514DF6281259605A609CE764
:1025280000ED00E000800B4000000D4000C00B40B3
:1025380020C528D910E000E0384939480A1A06D0E1
:10254800072291438D46CC22354800F061F8354981
:1025580035480A1A09D00722914381F309880222D3
:1025680082F31488CC2200F053F830483049314ABD
:1025780000F043F830483149314A00F03EF831481C
:102588003149324A00F039F831483249324A00F0CC
:1025980034F832483249334A00F02FF83248334988
:1025A800334A00F02AF833483349344A00F025F812
:1025B80033483449002200F02BF8334833490022CD
:1025C80000F026F832483349091A082903DB0022AB
:1025D8000260043001601F481F49884205D0026824
:1025E800043003B4904703BCF7E700208646EC4666
:1025F80000200021284A9047FEE7884207D0521A57
:1026080005D0037801300B700131013AF9D17047D8
:10261800884202D002700130FAE77047D82F0020B4
:10262800D8270020D8370020D82F0020D0C9006034
:10263800B8020020C00200207C2800607C280060CE
:1026480060BB0060D0C90060B8020020B80200205A
:1026580060BB006060BB006064BB006060BB006082
:1026680060BB006060BB006064BB006064BB00606E
:10267800D0C90060D8C90060D8260020D82600201C
:10268800C0020020D4260020D4260020D82600200E
:10269800D8260020D8270020B52B00600E4820F04F
:1026A800070085460D4880470D480E490E4A884266
:1026B80004D00368136004300432F8E70B480C496F
:1026C80001600C48016841F470010160BFF34F8F4D
:1026D800BFF36F8FFFF730BF0000022005240060B2
:1026E80000200060B82200600000002008ED00E033
:1026F8000000002088ED00E0FEE7FEE7FEE7FEE7C9
:10270800FEE7FEE7FEE7FEE7FEE7FEE7FEE7FEE799
:10271800FEE7FEE7FEE7FEE7FEE7FEE7FEE7FEE789
:10272800FEE7FEE7FEE7FEE7FEE7FEE7FEE7FEE779
:10273800FEE7FEE7FEE7FEE7FEE7FEE7FEE7FEE769
:10274800FEE7FEE7FEE7FEE7FEE7FEE7FEE7FEE759
:10275800FEE7FEE7FEE7FEE7FEE7FEE7FEE7FEE749
:10276800FEE7FEE7FEE7FEE7FEE7FEE7FEE7FEE739
:10277800FEE7FEE7FEE7FEE7FEE7FEE7FEE7FEE729
:10278800FEE7FEE7FEE7FEE7FEE7FEE7FEE7FEE719
:10279800FEE7FEE7FEE7FEE7FEE7FEE7FEE7FEE709
:1027A800FEE7FEE7FEE7FEE7FEE7FEE7FEE7FEE7F9
:1027B800FEE7FEE7FEE7FEE7FEE7FEE7FEE7FEE7E9
:1027C800FEE7FEE7FEE7FEE7FEE7FEE7FEE7FEE7D9
:1027D800FEE7FEE7FEE7FEE7FEE7FEE7FEE7FEE7C9
:1027E800FEE7FEE7FEE7FEE7FEE7FEE7FEE7FEE7B9
:1027F800FEE7FEE7FEE7FEE7FEE7FEE7FEE7FEE7A9
:10280800FEE7FEE7FEE7FEE7FEE7FEE7FEE7FEE798
:10281800FEE7FEE7FEE7FEE7FEE7FEE7FEE7FEE788
:10282800FEE7FEE7FEE7FEE7FEE7FEE7FEE7FEE778
:10283800FEE7FEE7FEE7FEE7FEE7FEE7FEE7FEE768
:102848001EF0040F0CBFEFF30880EFF3098000F0CF
:1028580001B80000064B1A68002A00DBFEE71A6878
:1028680042F000421A60836902338361704700BFF7
:042878002CED00E063
:10287C0010B50524002001F075FA012001F072FA60
:10288C00022001F06FFA4FF4FA7000F0A3FF002061
:10289C0001F08CFA012001F089FA022001F086FA8D
:1028AC004FF4FA7000F096FF631E13F0FF04E1D1B1
:1028BC00BDE8104006F0F8BD2DE9F04782B000F0FD
:1028CC0065FD00F065FD00F0AFF99A4B01A99A483F
:1028DC001B681A0CADF804308DF8062000F0ECF9EA
:1028EC00322000F077FF954800F0E6F9944800F0AC
:1028FC00E3F99449944800F0DFF99449944800F0C6
:10290C00DBF99449944800F0D7F9944800F0D4F9D5
:10291C008B4800F0D1F9894800F0CEF9002001F085
:10292C0051FF002001F0D0FF830700F1FC80012251
:10293C008B498C4807F080FD002840F0EE80012286
:10294C0089498A4807F0C0FD002800F0A980864913
:10295C00874800F0B1F9FFF78BFF864D01AB4FF4C0
:10296C0080728248294607F011FE20B9824A2B68F2
:10297C00934200F0BE807D4807F01CFF7F4800F0BA
:10298C009BF9FFF775FF2E69002E3ED04FF00047E4
:10299C00DFF8D891DFF80C82B6F5805FB24601AB58
:1029AC00394628BF4FF4805A4846524607F0EEFD90
:1029BC00002879D1019B9A4524D04046052400F08B
:1029CC007BF9002001F0CEF9012001F0CBF90220B7
:1029DC0001F0C8F94FF4FA7000F0FCFE002001F091
:1029EC00E5F9012001F0E2F9022001F0DFF94FF4E2
:1029FC00FA7000F0EFFE631E13F0FF04E1D106F055
:102A0C0053FD019BF61A1F44C6D1584807F0D2FE5D
:102A1C002A694FF00041012006F090FEEB699842C4
:102A2C0004D0574800F048F9FFF722FFEFF3108469
:102A3C0072B654480023544A4FF400210360C2F884
:102A4C008810BFF34F8FBFF36F8F4FF48041C2F8E4
:102A5C008C10BFF34F8FBFF36F8F4FF48011C2F800
:102A6C008010BFF34F8FBFF36F8F48484FF000417A
:102A7C00474A00680968106081F3088883F314885A
:102A8C0083F310881368984784F31088FFF7F0FEDF
:102A9C00FD2000F065FD4FF47A7000F09BFEFAE724
:102AAC003C4800F009F958E74046052400F004F9C9
:102ABC000020013C01F056F9012001F053F90220ED
:102ACC0001F050F94FF4FA7000F084FE002001F090
:102ADC006DF9012001F06AF9022001F067F94FF459
:102AEC00FA7000F077FE14F0FF04E1D106F0DCFC84
:102AFC0060E76A689A427FF43EAF274BAA689A4215
:102B0C007FF439AFFC222946012006F017FED5F8D8
:102B1C00FC3098427FF42FAF35E7204800F0CCF81A
:102B2C00FFF7A6FE0BE71E4800F0C6F8FFF7A0FE65
:102B3C00FDE600BFCCBC006064BB00609CBD0060C7
:102B4C0068BB00608CBB0060A0BB0060B0BB0060C9
:102B5C00BCBB0060CCBB0060D4BB0060E8BB0060B9
:102B6C0020BC0060C00200203CBC00606416002049
:102B7C004CBC0060641500207862696E94BC0060E7
:102B8C00B8BC006010E000E000E100E00400008050
:102B9C00EC04002064BC00600300000124BC006055
:102BAC000CBC0060A8BC006000B585B001F0DAFF79
:102BBC00094B4FF4805209490948029301230192B1
:102BCC0000220091074900F0BFFA00F06FFA0020D4
:102BDC0005B05DF804FB00BFD0BC0060F004002021
:102BEC00F0140020C5280060704700BF10B50446E3
:102BFC0082B064220DF10701204602F003F958B9A6
:102C0C009DF80700FFF7F0FF64220DF10701204645
:102C1C0002F0F8F80028F3D01F38C0B20128E8D829
:102C2C00204602F019F8E4E710B5002184B0012425
:102C3C00184801F0AFFF1023174A0021154801F086
:102C4C00D5FF4FF48073154A2146124801F0CEFF90
:102C5C00134900234FF4E1320E488B800A608C71CB
:102C6C0002F026F808B104B010BD224621460D48EA
:102C7C0000F00AFE0C4B4FF440710C4A02934023B7
:102C8C000B48CDE90021034A0A4900F05DFA04B073
:102C9C0010BD00BF881800208C190020101D0020CA
:102CAC00F41800207C190020DCBC0060101A0020F5
:102CBC009C190020F92B00600FB430B5104D83B077
:102CCC00EB78012B06D00024204603B0BDE8304041
:102CDC0004B070474FF0FF310A4800F0AFFF07AB6C
:102CEC00069A80210848019307F073FE04460649B2
:102CFC002846A2B202F02CF8024800F0F5FEE3E7F9
:102D0C00881800207C190020FC180020DE464FF0AB
:102D1C00113B62B601BD00BF104A13682DE9F04F9C
:102D2C00EFF303844DF8044D2DED108AF1EE104AAB
:102D3C004DF8044DC3F834D0094B03211B681360C4
:102D4C0083F83010D3F834D010BCE1EE104ABDEC4F
:102D5C00108A10BC84F30388BDE8F08F202000207B
:102D6C0010200020094B032209491B680B6083F8D3
:102D7C003020D3F834D010BCE1EE104ABDEC108AF0
:102D8C0010BC84F30388BDE8F08F00BF1020002036
:102D9C002020002070B572B6334A344E1368356863
:102DAC005969002943D06B69002B4FD02A69E2B1D5
:102DBC0053611A612E4B00225C6885F83020002C80
:102DCC0048D019688C4237D0616859600A6000237A
:102DDC00C4E90033274BA5421C6004D0264B1B785A
:102DEC002BB9FFF7BFFF62B670BD1A61E2E706F0C0
:102DFC0049FB34682866D4E917130A0C89B2C2EB74
:102E0C0013429BB292B299421BD31C4800680344F4
:102E1C005B1A9BB200FB0233626E13446366FFF7CE
:102E2C00A1FF346806F02EFBE06562B670BD1B692D
:102E3C00002BB8D11360BDE700200021C3E90001CD
:102E4C00C5E75B1A0D499BB20868E3E729694B613A
:102E5C001160AFE723464FF4B8720949094802F0F4
:102E6C002BF83568B6E700BF3C230020202000205B
:102E7C001820002010200020222300202C230020CA
:102E8C00E8BC00604CBD0060264B70B55C68002C43
:102E9C003FD01A68944232D0626800215A601160A7
:102EAC000023C4E90033204D204B2E681C60A64241
:102EBC0024D01F4B1B781BB9BDE87040FFF72CBF0B
:102ECC0006F0E0FA2C683066D4E917130A0C89B2C4
:102EDC00C2EB13429BB292B2994215D315480068CB
:102EEC0003445B1A9BB200FB0233626E13446366AD
:102EFC00FFF712FF2C6806F0C5FAE06570BD0020E4
:102F0C000021C3E90001CBE75B1A0A499BB20868B0
:102F1C00E9E723464FF4B8720749084801F0CCFFA3
:102F2C00C1E700BF18200020202000201020002026
:102F3C00222300202C230020E8BC00604CBD006044
:102F4C002DE9F04F012383B0DFF8F4A000260193A4
:102F5C008AF8003006F090FADFF8E890324BDFF890
:102F6C00E88018609AF80030002B32D02F4B0025E7
:102F7C001C68C9F80050002C51D0234628465A6EC4
:102F8C00D96A9A6615445866FF2908BF16461B690C
:102F9C00002BF4D1C9F80050002D35D0244BAB4692
:102FAC00A3FB05235D0942F21077A06E5A4600235D
:102FBC00A0FB070107F02FFCB84228BF3846E0669B
:102FCC002469002CF1D11B4BB6FBF5F5C5F164055A
:102FDC001D7072B6184B04224FF4FA711B6883F8FB
:102FEC003020164A196493420AD0D8F800208AB1CE
:102FFC00D8F804200021C8F80430C3E90212936009
:10300C00FFF742FF62B6ADE7019B4FF0010BC9F829
:10301C000030C8E7C3E90222C8E90033F0E7019B9E
:10302C002546C9F80030CEE72C2300203C23002095
:10303C001F85EB5121230020202000202822002076
:10304C0022230020302300201823002080B50226E4
:10305C00144F154C72B63B68216883F83060C1B1CF
:10306C00DD6A0A46D06A85420BDA1268002AF9D169
:10307C006168C3E900210B606360FFF705FF62B66E
:10308C00E8E75068586048B151681A600B605360AB
:10309C00F3E7C3E90011C4E90033EEE719604B60B4
:1030AC002360EAE720200020182000201F4A38B5B2
:1030BC001F4B9A4226D072B61E4B00211E4A5C68EA
:1030CC0011703CB31A6894421FD062685A60116048
:1030DC0000230322194D84F830202C60C4E90033FE
:1030EC0006F0D0F92B68E065D3F834D010BCE1EED3
:1030FC00104ABDEC108A10BC84F3038862B6BDE89C
:10310C00F08F38BD00BF00BFFCE700200021C3E9F1
:10311C000001DDE723464FF4B8720949094801F074
:10312C00CBFE064B1C6084F83040FFDED82F00200D
:10313C00D837002018200020202300202020002039
:10314C00E8BC00604CBD00602DE9F047089E9A4633
:10315C000546894673079046BDF8247004D007369F
:10316C00083F26F00706BFB274220021284607F05C
:10317C0067FC3A46CC21304607F062FC0A991022D3
:10318C0005F1180007F033FCF01901214FF004325F
:10319C00A0F17404C5F82CA0AE634FF0053EAF87C8
:1031AC004FF0063385F830104FF0073A40F8049C86
:1031BC004FF0083740F8088C4FF00936A2644FF0F6
:1031CC00103C544A0021C4F84CE04FF0407E23657B
:1031DC004FF0173362664FF016384F4A4FF02139D3
:1031EC00A7654FF01837E6654FF01936C4F860C084
:1031FC004FF0203CA2664FF02332C4F854A0616417
:10320C0040F874EC4FF02230A3604FF02433E760A9
:10321C004FF0263E26614FF02537C4F814C04FF00E
:10322C002836E0614FF0273C22624FF02930636270
:10323C004FF030324FF03133C4F80480C4F818909A
:10324C00C4E90A7EC4E90CC6C4E90E0223646C63AB
:10325C0072B6324A1368002B46D01560C5E90431AA
:10326C005D612F4902230A6885F83030002A35D079
:10327C00EC6A1346D86A84420DDA1B68002BF9D12C
:10328C004868C5E9003005604D60264B1B7873B16A
:10329C0062B6BDE8F08758686860002830D058687E
:1032AC002B6005605D601F4B1B78002BF0D11E4C12
:1032BC00022013462468E56A84F83000D86A8542F7
:1032CC0016DA1B68002BF9D14A68C4E90032146085
:1032DC004C60FFF7D9FD62B6BDE8F087C5E9002266
:1032EC002A46C1E90055D0E7C5E904331560B8E7B3
:1032FC005868606048B15A68236014605C60E8E705
:10330C002A6055602A460D60BFE7226054600C604D
:10331C00DFE700BFA12D0060192D00603C230020C9
:10332C0018200020202300202020002030B5082267
:10333C0085B000210D4807F083FB082200210C48C2
:10334C0007F07EFB0B4A4FF400700B4901240B4D28
:10335C000292FF2300222C70CDE900100849094885
:10336C00FFF7F2FE084B1C6005B030BD18200020A2
:10337C00182300203CBD0060101E002020230020DC
:10338C0059300060282200203023002006F048B875
:10339C00F8B5694C7422694D00212046012607F0CE
:1033AC004FFB28464FF40072CC2107F049FB04F187
:1033BC0018001022624907F01AFB022105F5C673AA
:1033CC004FF40070E1624FF040775E4A4FF00531E8
:1033DC00A0874FF00630A56384F830604FF00436B8
:1033EC00C5F8FC214FF00732C5F88C714FF0083747
:1033FC00D9644FF010319E644FF00936196652496A
:10340C0018654FF016305A654FF0173259664F4910
:10341C009F654FF01837DE654FF0193658604FF046
:10342C0020309A604FF0213299664FF02231DF60E4
:10343C004FF023371E614FF0243658614FF0253082
:10344C009A614FF02632D9614FF027311F624FF04D
:10345C0028375E624FF0293698624FF03030DA62CE
:10346C00002219634FF03131D863C3E90D76C5F8EA
:10347C00F821C3E91012636372B635490B68002B4F
:10348C0044D00C60C4E904325C61324902230A68FE
:10349C0084F83030002A33D0E56A1346D86A854266
:1034AC000CDA1B68002BF9D14868C4E900300460C1
:1034BC004C60294B1B786BB162B6F8BD58686060E4
:1034CC0000282FD05868236004605C60224B1B7866
:1034DC00002BF1D1214C022013462468E56A84F8B4
:1034EC003000D86A854215DA1B68002BF9D14A687E
:1034FC00C4E9003214604C60FFF7C6FC62B6F8BD3C
:10350C00C4E90022C1E900440B4AD2E7C4E9043300
:10351C000C60BAE75868606048B15A682360146060
:10352C005C60E9E7226054600C60034AC1E72260EA
:10353C0054600C60E0E700BF9C2200202820002093
:10354C0044BD00604D2F0060A12D0060192D00605E
:10355C003C230020182000202023002020200020C5
:10356C00024B1B68DA6AD862104670472020002094
:10357C008A498B480B68026801330132B3F57A7FB4
:10358C002DE9F047026000F0D5800B60854D2C686A
:10359C00002C00F08E80844EDFF824A2DFF82492F9
:1035AC00236C5A1ED11C01D81346226433B1D4F8B3
:1035BC000880B8F1000F7CD04446F1E72A68D4F8B3
:1035CC000880002A00F0A2806B689A4200F0898083
:1035DC00D4E90223002B00F0B880002A00F086808A
:1035EC00D360E3689A600023676CC4E90233C7B107
:1035FC003B68002B00F0B8807A689A4200F0968005
:10360C00D4E90023002B00F0C280002A75D053604F
:10361C0063681A6000236FF00102C4E9003363642D
:10362C00A265A76CBFB13B68002B00F0A5807A683F
:10363C009A4277D0D4E90023002B00F0AB80002A0B
:10364C005ED0536063681A6000236FF00102C4E916
:10365C000033A364A265E76CB7B13B68002B7BD049
:10366C007A6893425AD0D4E90023002B00F08C8066
:10367C00002A48D0536063681A6000236FF001027F
:10368C00C4E90033E364A2650223326884F8303065
:10369C0012B3E06A1346D96A884214DA1B68002B0D
:1036AC00F9D17268C4E9003214607460B8F1000F8B
:1036BC0082D13E4D2B6823B13D4A1468CCB1013CFC
:1036CC001460BDE8F08759686160002940D05A68E1
:1036DC00236014605C606CE7C4E90022C6E9004416
:1036EC0067E700220023C5E900237CE79A606B6042
:1036FC0079E798472C60BDE8F0871A607B6089E712
:10370C001A607B60A0E71A607B60B6E740F2672224
:10371C005146284801F0D0FB2A6855E70023C7E939
:10372C000033AAE70023C7E900338DE70023C7E97C
:10373C0000336FE720480024204A03680C600133F3
:10374C00036013680133136020E7D3602A604AE7F3
:10375C002260546034602CE740F29F125146484678
:10376C0001F0AAFB3B687BE740F29F1251464846AA
:10377C0001F0A2FB3B683FE740F29F1251464846DE
:10378C0001F09AFB3B6852E753603A6075E753606F
:10379C003A603FE753603A6056E700BF24230020AD
:1037AC003423002018230020182000201023002090
:1037BC001423002070BD0060282300203823002033
:1037CC00E8BC00605CBD0060014B1868704700BF2E
:1037DC003423002038B5C8B972B6274A0223274CC7
:1037EC001268206882F8303038B3D56A0346D96A3B
:1037FC008D422ADA1B68002BF9D16168C2E90031CD
:10380C000A606260FFF740FB62B638BD72B61A4BB5
:10381C0004211B4A1B689342186483F83010F1D0C2
:10382C00184A1168E1B1516800205360C3E90201E4
:10383C008B60FFF729FB62B638BDC2E90000C4E912
:10384C000022FFF721FB62B638BD5968516079B18F
:10385C00596813600A605A60FFF716FB62B638BDF0
:10386C00C3E90211C2E90033FFF70EFB62B638BDA3
:10387C00106042602260C5E7202000201820002044
:10388C00282200201823002070B515460E46044649
:10389C001022002107F0D4F8C4E9026570BD00BF06
:1038AC0072B60368002B00F083802DE9F047446862
:1038BC000646002C7ED0A34200F08680636800226E
:1038CC0043601A600023424FDFF810811D46DFF879
:1038DC0004A1DFF80C916564C4E900333B68002B4C
:1038EC0037D07A6893423ED0D4E90223002B57D0CC
:1038FC00002A52D0D360E3689A606FF0030202236F
:10390C00D8F800102564A26584F83030C4E902555B
:10391C0000293AD0E06A0B46DA6A904228DA1B6832
:10392C00002BF9D1D8F80420C4E900321460C8F88F
:10393C000440336833B37468002C3BD09C4229D0CC
:10394C00636873601D603B686564C4E90055002BB7
:10395C00C7D140F267225146484601F0ADFA3B68A8
:10396C007A689342C0D100220023C7E90023C4E740
:10397C005A686260BAB15A68236014605C6033683C
:10398C00002BD8D162B6BDE8F087C4E90011C8E9B4
:10399C000044CEE7C6E90055D5E79A607B60ACE7FA
:1039AC00D3603A60A9E721604C60C8F80040C0E7DA
:1039BC0062B6704700234FF4B8720649064801F00E
:1039CC007BFA62B6BDE8F0870023C0E9003379E7E3
:1039DC0018230020E8BC00604CBD006018200020BB
:1039EC0070BD006038B503460068002834D05C68B0
:1039FC00002C65D0A04236D0626800215A6011605C
:103A0C00344D00222B686264C4E90022002B45D09F
:103A1C006A689A423DD0D4E90223002B46D032B3D7
:103A2C00D3609A602C4D0023022229682364A3657D
:103A3C0084F83020C4E9023329B3E06A0B46DA6A11
:103A4C00904217DA1B68002BF9D16A680120C4E98F
:103A5C00003214606C6038BDD3E902218A422CDA42
:103A6C0001329A6038BD0022C3E90022C8E79A608F
:103A7C006B60D7E75A6801206260D2B15A68236044
:103A8C0014605C6038BD616001202160C5E90044B0
:103A9C0038BD00220023C5E90023C3E740F26722AA
:103AAC000E490F4801F008FA2B68B1E7D3602A6081
:103ABC00B8E721604C602C6038BD6FF0020038BD57
:103ACC0023464FF4B8720549064801F0F5F96464D1
:103ADC00FFDE00BF1823002018200020E8BC006087
:103AEC0070BD00604CBD006038B5034672B600680E
:103AFC0000284CD05C68002C00F08A80A0424ED08C
:103B0C00626800215A601160464D00222B68626485
:103B1C00C4E90022002B5CD06A689A4254D0D4E9E4
:103B2C000223002B65D0002A3DD0D3609A603E481A
:103B3C000023022102682364A36584F83010C4E9D1
:103B4C000233002A3AD0E56A1346D96A8D422DDA3F
:103B5C001B68002BF9D14168C4E900310C6044604A
:103B6C00324C022113462568EC6A85F83010D96A6C
:103B7C008C4236DA1B68002BF9D14268C5E9003259
:103B8C0015604560FFF780F9002062B638BDD3E9B7
:103B9C0002218A4239DA01329A6062B638BD0022BB
:103BAC00C3E90022B0E79A606B60C0E759686160B6
:103BBC0011B3596823600C605C60D1E7C4E9002242
:103BCC002246C0E90044CBE700220023C5E90023CC
:103BDC00ADE740F267221649164801F06DF92B68E3
:103BEC009AE75968696061B15A682B6015605D602D
:103BFC00C8E7D3602A609AE72260546022460460CA
:103C0C00AEE72A6055600560BCE76FF00200C4E7C0
:103C1C0023464FF4B8720649074801F04DF9646425
:103C2C00FFDE00BF182300201820002020200020D9
:103C3C00E8BC006070BD00604CBD0060034672B60D
:103C4C008268002A04DD013A00209A6062B670474F
:103C5C00002945D04FF0FF3270B5234E0424306854
:103C6C0080F830401C688265C0E91013002C29D004
:103C7C00C56A2246D16A8D421CDA1268002AF9D133
:103C8C0002605A68426010605860184B04229842D7
:103C9C0080F8302008D0164B1A68C2B15A6800213F
:103CAC005860C0E902129060FFF7EEF83368986D27
:103CBC0062B670BD5168416071B1536802601860A2
:103CCC005060E2E7C0E90044C3E90000DDE7C0E969
:103CDC000222C3E90000E7E7046060601860D4E7E3
:103CEC006FF00100B2E700BF202000202822002046
:103CFC0018230020F0B40F4C41F2B00202210E4FF9
:103D0C00236800200D4E43F00C030D4D236004F589
:103D1C007C240C4B04F51A74396031602A602260E3
:103D2C001A6822F040021A601A6822F03F02F0BCB6
:103D3C001A60704778C00F40EC801F40F0801F4025
:103D4C00DC821F4024C00F40704700BF08B503221F
:103D5C000021034806F074FEBDE8084000F032BEB6
:103D6C004023002002280DD8012810B5044612D09B
:103D7C00022808D14FF4806000F0CCFE0A4B0122DF
:103D8C001A5510BD70474FF4804000F0C3FE064B2F
:103D9C0001221A5510BD4FF4006000F0BBFE024B1F
:103DAC0001221A5510BD00BF4023002002280DD857
:103DBC00012810B5044612D0022808D14FF48060B7
:103DCC0000F082FE0A4B00221A5510BD70474FF4CA
:103DDC00804000F079FE064B00221A5510BD4FF4BE
:103DEC00006000F071FE024B00221A5510BD00BF9E
:103DFC004023002080010C4BC9000C4AC0B201F0DA
:103E0C00380101430A48F0B40B430A4F0A4E41F003
:103E1C0001110A4D0A4C3B6031602B60236003603A
:103E2C001360F0BC704700BF01700100C0831F40DD
:103E3C00BC831F40AC831F40B0831F40B4831F4022
:103E4C00B8831F407F4B5A6970B494030ED5BFF3EF
:103E5C004F8FBFF36F8F5A69002122F400325A61E1
:103E6C00C3F85012BFF34F8FBFF36F8F75494B6977
:103E7C00D80325D50023C1F88430BFF34F8F4B698D
:103E8C0023F480334B61BFF34F8FD1F8805043F64E
:103E9C00E076C5F34E34C5F3C905640104EA0600A7
:103EAC002B4640EA8372013BC1F874225A1CF8D1AC
:103EBC00203C14F1200FF1D1BFF34F8FBFF36F8F64
:103ECC00BFF35F8F5F4C10265F4A0023606A5F4927
:103EDC0020F480305E4D21F01F016062546841F087
:103EEC0011015C4824F001045460D6601561D16066
:103EFC001946013320FA03F2012AF9D84900564A2F
:103F0C00564C002301F03E0122F01F024E4D0C4393
:103F1C0042F0120252482C61EA601946013320FA31
:103F2C0003F2012AF9D849004E4A4C4C002301F007
:103F3C003E0122F01F02444D0C4342F013024A484A
:103F4C002C61EA601946013320FA03F2012AF9D8F0
:103F5C004900464D4648002301F03E01454C20F0F7
:103F6C001F003E4E25F01F05374A0E4324F01F0458
:103F7C0045F0140540F016013F4844F01504166155
:103F8C00D56010613D4D3E48D4601561D160194635
:103F9C00013320FA03F2012AF9D84900394A2A4898
:103FAC00052401F03E0327491A43026144604B6A21
:103FBC0043F480334B62BFF34F8FBFF36F8F4B696A
:103FCC0013F4803324D1C1F88430BFF34F8FD1F870
:103FDC00805043F6E076C5F34E34C5F3C905640151
:103FEC0004EA06002B4640EA8372013BC1F86022CA
:103FFC005A1CF8D1203C14F1200FF1D1BFF34F8F94
:10400C004B6943F480334B61BFF34F8FBFF36F8F1A
:10401C000C4A536913F4003311D1BFF34F8FBFF324
:10402C006F8FC2F85032BFF34F8FBFF36F8F53694E
:10403C0043F400335361BFF34F8FBFF36F8F70BCEA
:10404C00704700BF00ED00E090ED00E000000000C4
:10405C003B001003000002000000002001000303DD
:10406C00000002000000202000000C000000006096
:10407C000000E081000000802B00030631000303E8
:10408C000000200001000803BE4B4FF40041BE4A63
:10409C0000202DE9F04F116083B0D3F8C022BB494A
:1040AC0042F48032BA4CC3F8C022D3F8C02222F4B6
:1040BC000032C3F8C0220C6000F07AFF00F0AAFFB7
:1040CC00012000F09BFFB349B34C0B680A46B34880
:1040DC0023F0FF0343F07F030B60236823F440536A
:1040EC0043F4805323600168CB4303F000734B40CF
:1040FC000360936C9806FCD4A949CB680A4623F05C
:10410C001F0343F01403CB601368002BFCDAA349A4
:10411C00A04A0B6823F4E0530B60936C9907FCD412
:10412C00A049A14B0D689D4C25F440359F48994AF8
:10413C000D600D6825F440750D60196821F440017F
:10414C001960196821F040711960196821F4404117
:10415C0019602168CB4303F440734B402360036820
:10416C0023F0070343F001030360936C13F48033D3
:10417C00FBD18A4C8B4A2168019321F060518C4B06
:10418C008C4821601168DFF840A221F440118A4F5D
:10419C00DFF838B2116014687F4E24F44004DFF865
:1041AC000882DFF82C9214601D68844925F0407554
:1041BC00834CDFF820C21D601D68DFF81CE225F07F
:1041CC0040651D60156825F440551560056825F09F
:1041DC003F0545F001050560DAF8005025F00C05A7
:1041EC00CAF800503D6825F4605545F400653D6003
:1041FC00056825F480350560DAF8005025F03005A7
:10420C00CAF800503D6825F4E02545F480353D6042
:10421C00056825F400350560DBF8005025F00C0529
:10422C00CBF80050356825F0604545F000553560F9
:10423C00356825F4407545F480753560D8F8005024
:10424C0025F00C05C8F80050D9F8005025F460553D
:10425C0045F40065C9F80050D9F8005025F4C06544
:10426C00C9F80050156825F003051560156825F090
:10427C000C051560156825F030051560156825F0DE
:10428C00C0051560356825F0E05545F08055356062
:10429C00356825F0300545F0200535601D6825F49E
:1042AC0040051D603D6825F0C06545F080653D60AA
:1042BC00356825F4404545F4004535600D6825F416
:1042CC0040250D60256825F4E07545F0C005256096
:1042DC00256825F03F0545F001052560056825F4A6
:1042EC00406505600D6825F440150D60DCF8005044
:1042FC0025F4E07545F0C005CCF80050DCF8005012
:10430C0025F03F0545F00105CCF80050056825F473
:10431C00405505600D6825F440050D60256825F0B5
:10432C00E07545F440052560256825F47C1545F4B9
:10433C0080352560056825F440450560D8F80000F7
:10434C00204D20F0C000C8F80000D8F8000020F480
:10435C004070C8F80000D8F8000020F44060C8F89D
:10436C000000DEF8000020F0FC70CEF80000DEF853
:10437C00000020F48020CEF80000186820F44040A3
:10438C002CE000BF00800D40342400203824002095
:10439C0000366E0100C00F4018C00F4014C00F4013
:1043AC00000008406CC00F4070C00F4010C00F40A0
:1043BC0068C00F401CC00F4024C00F407CC00F4091
:1043CC0028C00F4030C00F4080C00F4084C00F4049
:1043DC003CC00F402CC00F4038C00F40186018680C
:1043EC0020F440201860DBF8000020F0C000CBF86F
:1043FC000000186820F440301860186820F4401051
:10440C001860DBF8000020F44070CBF8000059F87D
:10441C001C0C20F0FC0BC7484BF0040B49F81CBCDF
:10442C0059F81CBC2BF4407B4BF4007B49F81CBCAA
:10443C00D1F800B02BF0407BC1F800B0D3F800B03D
:10444C002BF0405BC3F800B0D3F800B02BF4405B0A
:10445C00C3F800B0136823F040731360DCF84830E5
:10446C0023F00C03CCF84830DCF8483023F0C003C0
:10447C00CCF848300B6823F040630B60DAF800305E
:10448C0023F44043CAF800303B6823F03F033B6001
:10449C003B6823F040033B60DCF8483023F4406376
:1044AC00CCF84830DEF8003023F4E04343F480537A
:1044BC00CEF80030336823F0607343F0C073336080
:1044CC00DEF8003023F4603343F42033CEF80030B0
:1044DC000B6823F440430B602B6823F0606343F0BC
:1044EC0000732B602A68D34303F0E07353402B60B6
:1044FC002A68D34303F4401353402B600B6823F01A
:10450C000C030B602B6823F4E04343F480532B60C3
:10451C002A68D34303F4606353402B602A68D34367
:10452C0003F4C07353402B600125DCF8483023F0B2
:10453C000303CCF84830236823F4606343F400731E
:10454C0023602268D34303F060635340236059F81F
:10455C001C2CD34303F4C013534049F81C3C58F8AB
:10456C00643C23F0010348F8643C00F05DFD00F06E
:10457C0085FD714B714A4FF4803171481C461160B6
:10458C00D3F870216F4922F40042C3F87021D3F89C
:10459C00702122F40002C3F870211A6F42F4005209
:1045AC001A67D3F8A02022F40052C3F8A020D3F845
:1045BC00A02022F4E03242F48032C3F8A020019A09
:1045CC00C3F8B020C3F8C050D3F8A050D3F8702172
:1045DC00284042F040420143C3F87021C3F8A010B8
:1045EC00D4F8A030002BFBDA574B4FF480351D600C
:1045FC0000F04CFD554B1D60D4F8E03023F0030364
:10460C0043F00103C4F8E030D4F8E03043F4005335
:10461C00C4F8E030D4F8E03023F00C03C4F8E030F8
:10462C00D4F8E03043F48013C4F8E030D4F8E03030
:10463C0043F40013C4F8E03000F01AFD444B454A33
:10464C001D60236A43F400532362D2F84034C3F351
:10465C000143022B00F08C803F4A136823F4402363
:10466C0013603E493E4A0B6823F000730B60936C59
:10467C009B06FCD438483B4D01682F4C21F440512B
:10468C00394B01602968394821F040012960D4F880
:10469C00601121F01F01C4F86011116E21F070013E
:1046AC001166116E21F00F0141F001011166116EBE
:1046BC0021F460011166116E21F4F81141F490118E
:1046CC001166116E21F480711166116E21F080015A
:1046DC001166116E21F0807111665A6822F0070282
:1046EC005A605A6822F038025A605A6822F0C002A6
:1046FC005A605A6822F440725A605A6822F4406236
:10470C005A609A68104098605A6822F400525A60B5
:10471C005A6822F480425A605A6922F080525A61D7
:10472C005A6922F000525A6103B0BDE8F04FFDF710
:10473C00BDBD00BF80BD006000800D4074800D4089
:10474C0080CFFFFF1F200800A8800D40E4800D40A3
:10475C0024800D4000401F4018C00F4014C00F4073
:10476C0000C00F401CC00F4000C00A40FFFF00FB00
:10477C00A2F57722A2F6E8721168CB4303F440232A
:10478C004B4013606DE700BF38B50122044D0C4659
:10479C0028461146FFF778F80120256038BD00BF88
:1047AC004423002008B5FFF77BF8012008BD00BFAB
:1047BC004FF0FF3108B5FFF741FA012008BD00BFEB
:1047CC00FFF792B9F8B5384C2378990709D440B95A
:1047DC00364A15684DB3364D95F83C0050B1DA07A2
:1047EC0001D41846F8BD324804F03AFC00283AD1FE
:1047FC002378F6E72F4B2B6001F02AF92E4A02237F
:10480C0001462E48126885F8D430C2F3C222E86201
:10481C002846531CB1FBF3F36B6004F0F9FB296BD6
:10482C00286804F01BFC2378D9E70123224F244E7F
:10483C00136000F079F82846182101F0EFF83B6876
:10484C002946D82223F4605319483B603568EB4362
:10485C0003F480336B40336006F0F2F8237843F0B6
:10486C0001032370B7E7124804F0F2FB2868296BA8
:10487C0004F0F2FB0E4804F089F860B10C4804F027
:10488C00ABFBD82200210A4806F0DAF8237843F073
:10489C0001032370A5E7296C0A48FEF70DFA23786B
:1048AC0003F0FE0323709CE7B80200205423002081
:1048BC005823002000002C4024C00F40A0BD0060F5
:1048CC001CC00F4088BD006008B10120704710B5B6
:1048DC00074C0848237843F00203237004F0C0FB14
:1048EC0008B9207810BD207800F0FD00207010BDB4
:1048FC00B80200205823002058B908480078C00797
:10490C0009D4074808B503F04DFE003818BF012044
:10491C0008BD012070470320704700BFB80200207B
:10492C005823002002F06CBB1A480521DFF890C018
:10493C000022036843F00C03F0B4036000F57C2004
:10494C00154F0625CCF8001000F5A470396041F223
:10495C00B0061249124C134B25601A60124D0260BE
:10496C000A6062611A61114C114B0261C1F8FC6062
:10497C00104A2B60C0F8E4410F4D104CC1F8E831DF
:10498C0015602360C0F8F831C1F8F8311361F0BC40
:10499C00704700BF78C00F40AC811F40C4811F40DE
:1049AC00B4811F40BC811F409C831F40A17001003B
:1049BC0089700100B0831F4089400100B4831F40FF
:1049CC00D0801F402DE9F047354D8AB02C7824B1AA
:1049DC00002318460AB0BDE8F0871322314F324845
:1049EC004FF0010A314E4DF6B0033A602027C0F863
:1049FC0000A002A8326002262D4A2E49C1F800A060
:104A0C00136053600894CDE90244CDE90444CDE928
:104A1C00064402F0A5FB284B0820049300F038FD57
:104A2C00264A02A9A2FB00322548520902F036FCA4
:104A3C0001A80123022202A98DF80F40ADF8044011
:104A4C008DF80E400294ADF80C70CDE906061C48AA
:104A5C00CDE9042302F0F2FE03460028B9D101AAE5
:104A6C004FF006084FF001098DF80F00ADF8040067
:104A7C0002A98DF80E0012480293ADF80C70069244
:104A8C000796CDE9048902F0D9FE03460028A0D18F
:104A9C000C4A85F800A0108018460AB0BDE8F087D3
:104AAC0030240020FC801F40CC841F4000811F401C
:104ABC00EC821F40D0841F40A0860100ABAAAAAA9A
:104ACC0000003F4032240020104900220B8823EACA
:104ADC0000000223F0B500B289B020270224088020
:104AEC0001AE012502A9ADF8040009488DF80F208C
:104AFC008DF80E200292ADF80C70CDE90663CDE96D
:104B0C00044502F09BFE09B0F0BD00BF322400202A
:104B1C0000003F400F4A00231188F0B589B00843CC
:104B2C00202702248DF80F3001258DF80E3001AEB0
:104B3C00029302A902231080ADF804000648ADF8D8
:104B4C000C70CDE90663CDE9044502F077FE09B09F
:104B5C00F0BD00BF3224002000003F40704700BF72
:104B6C00704700BF10B5EFF3108472B604F020FC50
:104B7C00FEF7DCFBFFF7E8F8FFF7E8F800F008F8C1
:104B8C00FFF7ECFFFFF7ECFF84F3108810BD00BFBC
:104B9C00704700BF70B528B304460D4601266C2241
:104BAC00002105F04DFFA5702046667004F0EEFC68
:104BBC00054608B1284670BD3246314604F108005E
:104BCC00FEF762FE3246314604F11800FEF75CFE39
:104BDC0004F128006FF000422946FEF755FE2846E6
:104BEC00267070BD0225284670BD00BF002A18BF74
:104BFC00002B2DE9F04108D0064630B10D46144685
:104C0C00018840F20112914203D003252846BDE8E9
:104C1C00F08100F108074FF0FF3198463846FFF756
:104C2C000DF845B1012D0ED003253846FEF75CFF7B
:104C3C002846BDE8F0814346214606F1400001229A
:104C4C0000F04CF9F1E72A464346214606F15000A4
:104C5C00002500F043F9E8E768B140F2011370B5A4
:104C6C00028804469A4201D0032070BDC378012B00
:104C7C0003D0162070BD0320704700F108054FF0DB
:104C8C00FF3100F128062846FEF7D8FF04F140005A
:104C9C0000F02EF93046FEF703FE30466FF000426E
:104CAC000021FEF7F1FD2846FEF71EFF002070BD27
:104CBC002DE9F04182B038B10D4629B1028840F29D
:104CCC00011304469A4204D00325284602B0BDE8DD
:104CDC00F081C6789EBB036CB3B3036DB3B300F124
:104CEC0008074FF0FF3100F128083846FEF7A6FF01
:104CFC0004F1400000F0FCF804F1500000F0F8F86A
:104D0C004046CDF80480FEF7CBFD019831466FF09C
:104D1C000042FEF7B9FD04F1380395E8030083E87F
:104D2C000300204604F056FC054608B90123E37045
:104D3C003846FEF7D9FE284602B0BDE8F0811725AB
:104D4C00284602B0BDE8F0811825BEE71925BCE75E
:104D5C00002918BF002A4ED02DE9F041044682B03C
:104D6C0060B10D4640F201130188994206D1C37817
:104D7C00012B07D0162002B0BDE8F081032002B051
:104D8C00BDE8F08100F118084FF0FF3100F1500739
:104D9C0001924046FEF752FF019A561EB6B20136FA
:104DAC002E4405E00135204604F092FCB54224D097
:104DBC002946384600F0B0F80028F3D0384600F009
:104DCC00A1F8034620468BB12946384600F0A4F8DA
:104DDC00E8E7204604F07CFC0120FEF7FBFC38469B
:104DEC0000F090F803462046002BEDD104F098FC1F
:104DFC000128F1D1EDE7032070474046FEF774FE21
:104E0C000020BCE72DE9F84338B10E4629B10188E2
:104E1C0040F201130446994203D003252846BDE80D
:104E2C00F883C378012B03D016252846BDE8F883F8
:104E3C0000F1080700F140084FF0FF319146384669
:104E4C00FEF7FCFE4046314600F08EF80A28054677
:104E5C0012D060B11F2814D104F128000121FEF7F3
:104E6C00EDFE3846FEF740FE2846BDE8F88325796E
:104E7C00002D18BF1F25EFE72379002B0CBF1E2533
:104E8C002025494604F12800FEF7D8FE0028E8D179
:104E9C003146404600F068F80A28054606D000283E
:104EAC00DFD12579002D18BF1F25DAE72379002BD8
:104EBC000CBF1E252025D4E700B583B02BB1009084
:104ECC000448FDF7F9FE00BFFDE703460248FDF775
:104EDC00F3FEF8E7B4BD0060D8BD006010B4002448
:104EEC000160828084608481C3805DF8044B7047CC
:104EFC00EFF3108272B600238360838182F31088F3
:104F0C00704700BFEFF3108272B6C3888089181AFD
:104F1C0080B282F31088704770B5EFF3108572B6CB
:104F2C008389C2889A421AD0044682880089013348
:104F3C00266810FB02F0A38116FA80F005F057FDED
:104F4C002389E288002001339BB29A42238102D04C
:104F5C0085F3108870BD208185F3108870BD0B20FF
:104F6C0085F3108870BD00BFF8B5EFF3108572B6ED
:104F7C0083891BB90A2085F31088F8BD0446828802
:104F8C004689013B0846276816FB02F1A38117FAF4
:104F9C0081F105F02CFD6389E288002001339BB27E
:104FAC009A426381E7D1608185F31088F8BD00BF18
:104FBC0008B5B8B90E4B4FF080421946C3F85821CA
:104FCC00D1F87032DA03FBD54FF48033084AC1F8BC
:104FDC005431D2F850311B04FBD54FF48033C2F856
:104FEC00583108BDA2220349034805F013FCE1E740
:104FFC0000800D40F0BD006070BE0060044B1022BC
:10500C0010B9C3F874227047C3F87822704700BFF8
:10501C0000800D40034AD2F8703243F00103C2F80D
:10502C007032704700800D400F4930B403790A4646
:10503C000D689B030D4C25F4E0359BB22B4343F4D8
:10504C0080330B600368086803F07F03044023433C
:10505C0043F400530B601368002BFCDA136823F441
:10506C00803330BC1360704700800D4080CFFFFF51
:10507C00014B00221A62704700800D40024B4FF426
:10508C0080521A67704700BF00800D40024B4FF4EE
:10509C008052C3F8E020704700800D40F0B5C0F39B
:1050AC000B479A4E00F01F0285B0BC590546984B31
:1050BC000DF1100CD4400FCB14F001040CE90F00CF
:1050CC0033D0BB5913F4404F32D00024BB5913F4E6
:1050DC0080332AD18F4A954200F0B6803FD8A2F592
:1050EC00A002954200F0F28029D98B4A95421BD13F
:1050FC00864B07EE904A93ED146AB8EE677B93EDFE
:10510C00185AB8EE466B1B6BB8EE455BDB0727EE07
:10511C00067B87EE056B42D404EB8404A400BCEE42
:10512C00C66B16EE103A23441C46204605B0F0BD63
:10513C00D6F87032DA0630D4784B1C68C6E70D2DE1
:10514C0031D0A2F580129542EED1704B1B6913F051
:10515C00020F14BF1623142303FB04F4E5E7704A73
:10516C00954228D007D96F4B6F4C9D4218BF002435
:10517C00204605B0F0BD6D4A954226D002F580025E
:10518C009542D1D1614B04AAD3F8E03003F003036C
:10519C0002EB830353F8104CC7E7654C96E71623D4
:1051AC0003FB04F4BBE7594B1B6803F07F0304FBC0
:1051BC0003F46408B9E7554B04AAD3F8E03003F0C4
:1051CC000C03134453F8104CAFE7504B07EE904AC6
:1051DC00D3F8A020B8EE677B93ED2C5A93ED306A90
:1051EC0002F07F02B8EE455BD3F8A030B8EE466B08
:1051FC0003F4C01327EE055BB3F5002F85EE067B99
:10520C00BCEEC77B17EE101A04FB02147AD0B3F570
:10521C00801F07D0002B77D040F206424549464804
:10522C0005F0F8FA394BD3F8703103F04043B3F181
:10523C00004F3FF47AAF57D8002B3FF476AFB3F161
:10524C00804F54D1640870E7304B07EE904A1A6FC8
:10525C00B8EE677B93ED205A93ED246A02F07F023F
:10526C00B8EE455B1B6FB8EE466B03F4C01327EE2C
:10527C00055BB3F5002F85EE067BBCEEC77B17EE06
:10528C00101A04FB021439D0B3F5801F07D0002B81
:10529C0036D040F2C5322749274805F0BBFA1B4BE4
:1052AC00264AD3F870311340B3F5000F3FF43DAFED
:1052BC0016D8002B3FF439AFB3F5004FC2D040F2F3
:1052CC00D9321C491C4805F0A5FA2EE70F4B1B6A76
:1052DC0013F0020F14BF1623142303FB04F424E76A
:1052EC009342ECD1A40820E7B3F1404FFAD040F23E
:1052FC001A421049104805F08DFA16E76408CEE7FB
:10530C00A408CCE764088DE7A4088BE700800D4067
:10531C0088BE00600D0070000D00300038240020A5
:10532C001400E0001500E00040787D010D00A000A5
:10533C0000366E01F0BD006080BE00600080800011
:10534C0008B54D4B586910F0007013D0986900F4F3
:10535C004050B0F5805F4AD0B0F5005F6FD00028A8
:10536C004DD00020444B5B69C3F3C2630133B0FBE7
:10537C00F3F008BD9B6903F44023B3F5002F67D00D
:10538C0012D8002B5FD0B3F5802FF2D13B48FFF73A
:10539C0085FE3B4BD3F80031C3F30543B0FBF3F070
:1053AC0000EBC000400008BDB3F5402FE1D1344BF9
:1053BC001A68920413D51A6812F4404F05D1D3F829
:1053CC007032D90656D42F4B18682D4B1A68D2035D
:1053DC0005D41B6803F07F0300FB03F04008264B49
:1053EC001B6903F007030133B0FBF3F008BD244B3A
:1053FC00D3F87032D90639D4224B1868B2E7A3F52A
:10540C000F33A3F57C731A689104ABD51B6813F4A6
:10541C00404F06D11A4BD3F87032DA0628D4194B08
:10542C001868194B1B68DB039CD4154B1B6913F0D4
:10543C00020F14BF1623142303FB00F092E70F484E
:10544C00FFF72CFE8EE70D48BDE80840FFF726BE9F
:10545C000A48FFF723FE0A4BD3F8003103F03F0351
:10546C00B0FBF3F000EBC000400008BD074879E743
:10547C000648D6E70548A8E700C00F400D003000ED
:10548C0000800D403824002010800D4000366E0145
:10549C0010B584B0172800F2B082DFE810F01800C5
:1054AC0018008B016701520149015B022A010701B7
:1054BC00DC00B1001602EB01C801C6014D023F022F
:1054CC00A30095006D0046002B0029002300FFF778
:1054DC0037FFAE4B5B69C3F382230133B0FBF3F0B0
:1054EC0004B010BDAA4804B0BDE81040FFF7D6BD0B
:1054FC00A848F8E7A84A13689902C3F34050EFD5BF
:10550C00136813F4404F40F05082A44BD3F8703220
:10551C00DB0600F16882A24B18689F4AA14B126807
:10552C0012F4803F08BF1846DAE79F4B0DF1100CC0
:10553C00994C0FCB0CE90F002368DA02C3F300502F
:10554C00CED5236813F4404F40F01982934BD3F817
:10555C007032DB0600F14B82914B18688E4B1B6846
:10556C00DC03BDD48D4B04AAD3F8E03003F00C035C
:10557C00134453F8100CB3E78B4B0DF1100C864C05
:10558C000FCB0CE90F002368C3F340309B04A7D565
:10559C00236813F4404F40F01482804BD3F87032E0
:1055AC00D80600F11E827E4B18687B4B1B68D90312
:1055BC0096D47A4B04AAD3F8E03003F0030302EB41
:1055CC00830353F8100C8BE77848FFF767FD734B98
:1055DC00D3F80031C3F30563B0FBF3F000EBC0006C
:1055EC0040007DE77148FFF759FD6C4BD3F8003153
:1055FC00C3F30543B0FBF3F000EBC00040006FE7D2
:10560C006B4A13689904C3F3403019D5136813F42B
:10561C00404F40F0CC81614BD3F87032DB0600F187
:10562C00DA815F4B1868624B1B68DC0308D45B4B58
:10563C001B6913F0020F14BF1623142303FB00F095
:10564C00564BD3F8F030C3F30523B0FBF3F000EB6B
:10565C00C000400044E7564A13689904C3F3403035
:10566C0019D5136813F4404F40F0A3814B4BD3F87A
:10567C007032DB0600F1B181494B18684C4B1B684A
:10568C00DC0308D4454B1B6913F0020F14BF16231F
:10569C00142303FB00F0414BD3F8F03003F03F032D
:1056AC00B0FBF3F000EBC000400019E7404A136870
:1056BC009904C3F340307FF513AF136813F4404FD4
:1056CC0040F05B81354BD3F87032DB0600F18D81F5
:1056DC00334B1868364B1B68DC033FF501AF2F4B7F
:1056EC001B6913F0020F14BF1623142303FB00F0E5
:1056FC00F6E62A4A13689904C3F340307FF5F0AEFE
:10570C00136813F4404F40F03C81D2F87032DB0642
:10571C0000F15B81224B1868204B1A68D4033FF5CB
:10572C00DFAE1B6803F07F0300FB03F04008D7E6F5
:10573C001A4BD3F87032D80600F10F81184B186849
:10574C00CEE6124CE3695B0640F11D81134BD3F896
:10575C007032DC0600F13781114B1B680B4AD069A3
:10576C0000F03F000130B3FBF0F0B9E6FFF7E8FDC5
:10577C00064B59695B69C1F38221C3F301234A1CAF
:10578C000133B0FBF2F0B0FBF3F0A9E600C00F4020
:10579C000D00A0000D007000E0800D4000800D4059
:1057AC003824002040787D0188BE00600D00300058
:1057BC0010800D40924B5A69520640F1F3805B69A0
:1057CC001B0640F1CC808F4A13689C04C3F3403015
:1057DC0019D5136813F4404F40F00B818A4BD3F862
:1057EC007032D90600F10781884B1868854B1B680D
:1057FC00DA0308D4844B1B6913F0020F14BF162371
:10580C00142303FB00F0804BD3F8F030C3F30523D3
:10581C00B0FBF3F000EBC0004000794B5B69C3F3C5
:10582C0002430133B0FBF3F05AE679485BE6794A60
:10583C0013689C04C3F340307FF552AE136813F425
:10584C00404F40F0BA80704BD3F87032D90600F15B
:10585C00C0806E4B18686F4B1B68DA033FF540AE87
:10586C00694B1B6A13F0020F14BF1623142303FB9E
:10587C0000F035E6634A13689904C3F3403019D538
:10588C00136813F4404F40F096805F4BD3F870329E
:10589C00DA0600F19C805D4B18685A4B1B68DB03E1
:1058AC0008D4594B1B6913F0020F14BF1623142391
:1058BC0003FB00F0544BD3F8F030C3F30563B0FB9B
:1058CC00F3F000EBC00040000AE64E4A136899045E
:1058DC00C3F3403017D5136813F4404F6FD14A4BC4
:1058EC00D3F87032DB067AD4484B1868454B1B68EA
:1058FC00DC0308D4444B1B6913F0020F14BF1623AE
:10590C00142303FB00F0404BD3F8F030C3F30543F2
:10591C00B0FBF3F000EBC0004000E1E53C48FFF7C2
:10592C00BDFB394BD3F80031C3F30523B0FBF3F0C7
:10593C0000EBC0004000D3E53548FFF7AFFB324B1E
:10594C00D3F8003103F03F03B0FBF3F000EBC000E1
:10595C004000C5E54FF40040C2E52F48C0E52C4897
:10596C00FFF79CFB284BD3F80031C3F30543B0FB86
:10597C00F3F000EBC00040004FE70020AAE6002047
:10598C00ECE50020C8E6FFF7DBFC62696369C2F353
:10599C008222C3F3012301320133B0FBF2F0B0FBDE
:1059AC00F3F3DBE6FFF7CCFC37E70020B5E500208E
:1059BC0039E6002062E600206FE700204BE700206C
:1059CC0094E70020F1E5144BC8E61348A4E612480E
:1059DC0063E711483FE7104825E60F484EE60E48AE
:1059EC0084E70D48E1E50C4897E50B4872E60A4858
:1059FC00B4E50020FAE60848F8E6002070E500BFA0
:105A0C0000C00F4010800D4000800D403824002055
:105A1C000D00300020800D4000366E0130B4C00007
:105A2C000A4CBF258023D4F8002101F03F018540AA
:105A3C00814003FA00F022EA050319431843C4F825
:105A4C000001C4F8001130BC704700BF00800D404D
:105A5C0036490A68C2F34033920425D50B6813F417
:105A6C00404F27D00023314A1268D1031CD4304A4E
:105A7C0007EE903A92ED146AB8EE677B92ED185AE5
:105A8C00B8EE466B126BB8EE455BD20727EE067B81
:105A9C0087EE056B42D5162202FB03F3BCEEC66BF8
:105AAC0016EE102A1A44134603283DD8DFE800F0FE
:105ABC002B20150A1E4BD3F87032DB0632D41D4B4B
:105ACC001B68D0E71A4AD2F80001C0F30560B3FB9B
:105ADC00F0F303EBC30358007047154AD2F80001EA
:105AEC00C0F30540B3FBF0F303EBC303580070475E
:105AFC000F4AD2F80001C0F30520B3FBF0F303EB1F
:105B0C00C303580070470A4AD2F8000100F03F0066
:105B1C00B3FBF0F303EBC3035800704703EB8303B1
:105B2C009B00BBE7044B9EE70020704730800D4084
:105B3C0000800D403824002000366E012DE9F8431A
:105B4C000D460446174650B3584B984200F08980D6
:105B5C0003F58043984200F0918003F5804398420E
:105B6C0000F09E8003F58043984200F09B80A3F5E3
:105B7C008213984200F09880B0F1844F0FD04C4BB8
:105B8C0098420CD003F58043984208D003F580432B
:105B9C00984204D039224749474804F03BFE01267D
:105BAC006369AE4023EA06036FEA060863613B783B
:105BBC0023BB636808EA03036360E2690F2DBB78BB
:105BCC0008EA0202E26115D804F10C02013B042B35
:105BDC000ED8DFE803F026032F3421006800136889
:105BEC00032501218540814023EA05050D431560FD
:105BFC00BDE8F883103D04F11002E7E71F2D97F87C
:105C0C00019028D82368B9F1000F20D033432360CA
:105C1C00636833436360D0E7E3691E43E661BDE824
:105C2C00F8836900032513688D4023EA0505156088
:105C3C00BDE8F8836800136803250221D2E76900E8
:105C4C00032513688D401D431560BDE8F88308EAF1
:105C5C0003032360DCE771221649184804F0DAFDCF
:105C6C00D0E74FF01A080126154A032352F82610E4
:105C7C0003FA08F30B4342F8263090E70222114B4B
:105C8C0033F91220B2F5006F4FEA122602F01F080A
:105C9C00EAD340F22D420C490C4804F0BBFDE3E77B
:105CAC000322ECE70422EAE70522E8E700801B4028
:105CBC000040004298BE006014BF0060C8BF006086
:105CCC0068C00F40D4BF006038BF0060B8BF006030
:105CDC001F2970B50D46044616460BD801212368C2
:105CEC0001FA05F51EB923EA0505256070BD1D43B3
:105CFC00256070BD71220249024804F08BFDEDE76E
:105D0C0098BE0060C8BF00602DE9F04F83B080469C
:105D1C0017460191002900F03F81019B1B68002B65
:105D2C0000F02381019B1B7A042B00F21881019B4C
:105D3C005B7A042B00F20D81019B07EB870E4FF071
:105D4C00000904241D684FEA4E0ECA46DFF8D0B293
:105D5C00AE002846E2B2BEFBF6F305332E44ABFB95
:105D6C000313C3F3CF03012B38BF012304FB03F14F
:105D7C000134B7FBF1F18D42A5EB010C38BFA1EB5F
:105D8C00050C844502D8604691469A46212CE1D1F7
:105D9C00924BA3FB05356D0905EB45058542C0F01B
:105DAC00D380B8F1000F00F0EA808D4B984500F0DD
:105DBC00078103F58043984500F0048103F5804387
:105DCC00984500F0018103F58043984500F0EA8086
:105DDC0003F58043984500F0F98003F5804398451E
:105DEC0000F0FA8003F58043984500F0F18003F54C
:105DFC008043984500F0EE807A487E227A4904F080
:105E0C0009FD0320794B1968A9F10402CAF30C0AA5
:105E1C00019C0143032A09F1FF321960D8F80830BC
:105E2C004FEA0262724943F0020302F0F852C8F8DA
:105E3C000830D8F8083023F00203C8F80830D8F836
:105E4C0010006C4B98BF40F40030034013434AEAF7
:105E5C000303C8F81030D8F8103023F00053C8F8FA
:105E6C001030D8F81830E27B19402079A37B12024D
:105E7C000143647902F4E0629B00012C42EA0102C6
:105E8C0003F0040343EA020375D008B143F0100396
:105E9C000198C8F81830C379D8F810205B03817AC0
:105EAC0022F4005203F400531343C8F81030427A22
:105EBC00037A43EA0243C8F82C30D8F8283043F070
:105ECC008803C8F82830D8F8283043F44043C8F881
:105EDC002830437B027B1B01D8F82400520103F0CD
:105EEC00100302F0200213430343C8F8243029B1F5
:105EFC00D8F8243043F00803C8F82430019BDB7A2F
:105F0C002BB1D8F8243043F00103C8F82430019C9D
:105F1C003949A079394AD8F81430002808BF0A4604
:105F2C00217C1343C8F81430D8F8183009B143F465
:105F3C000023019A527C0AB143F480230020C8F854
:105F4C00183003B0BDE8F08F40F2215003B0BDE82B
:105F5C00F08FF92224492A4804F05CFCECE6F82284
:105F6C002149284804F056FCE1E6F6221E49264851
:105F7C0004F050FCD6E660B123F4006388E72348B4
:105F8C0040F22D42224904F045FC4FF00040214BD9
:105F9C0039E743F400637BE7F52213491E4804F00C
:105FAC0039FCBAE604201D4A0321104B32F91020AB
:105FBC00100A02F01F0203EB800301FA02F022E741
:105FCC000120F0E70220EEE70320ECE70520EAE7EA
:105FDC000720E8E70820E6E70620E4E71F85EB51F9
:105FEC000040184080C00060E0BF006068C00F40F7
:105FFC00E8F8FFFF00E0FFE000C01FC000C01FE09A
:10600C001CC10060D4C00060B8C00060B8BF0060A4
:10601C0038BF006064C00F44A8C0006064C1006059
:10602C00CDCCCCCC10B5044668B11422002120464E
:10603C0004F006FD00234FF4E1322382C4E900236F
:10604C00C4E9023310BD40F209220249024804F0AF
:10605C00E1FBEAE7E0BF0060A8C000600B0221F0A2
:10606C00FF0130B4056903F4404403F440722C433F
:10607C000461836A23F440331343836283691943B5
:10608C0030BC8161704700BF0B0221F0FF0130B4BE
:10609C00046903F4404503F4407224EA05040461E6
:1060AC00836A23EA020323F440338362836923EA7D
:1060BC00010130BC816170470269836A120A05498B
:1060CC008069C3F3012302F0C00208401343184354
:1060DC00704700BF00C0F00F4269836A1B0C03F0CD
:1060EC00C30343EA02007047014420F01F00091A61
:1060FC00002913DDBFF34F8F4A1E00F1200308491E
:10610C0022F01F021A449342C1F86802184603F1A8
:10611C002003F8D1BFF34F8FBFF36F8F704700BFD1
:10612C0000ED00E0014420F01F00091A002913DDE6
:10613C00BFF34F8F4A1E00F12003084922F01F02C3
:10614C001A449342C1F87002184603F12003F8D1A7
:10615C00BFF34F8FBFF36F8F704700BF00ED00E0B0
:10616C0070B505460C4641B3637A2A696869A9691A
:10617C000BB3032BE2600FD0E06960B1082B1AD887
:10618C004FF4A37121FA03F3DB0714D5104241F647
:10619C00661008BF002070BDEB690E0E150E46EAA6
:1061AC000326030E1202A66145EA002043EA0121F0
:1061BC00E260C4E90401002070BD40F25D120249A6
:1061CC00024804F027FBCFE778C1006010C20060E2
:1061DC00F8B506460D46002900F0B080346BB36B61
:1061EC001C4014F0C00F7AD1804B2340002B61D19E
:1061FC007F4B1C4213D1E10504D56B6913B1696A5D
:10620C0030469847620704D5AB6913B1696A3046CA
:10621C009847784B2340002B6BD13463F8BD2B6827
:10622C00002B00F0A380AA682B689B7893B9724B63
:10623C001C420FD0EF69002FDDD041F667126B6A5C
:10624C0029463046B847B16B6C4B00220B40B36308
:10625C002A60D0E7A0065BD52B68DB78012B67D0D2
:10626C002F68736CB16CC90722D47968880703D086
:10627C0021F0030104317960B868DBB200FB01F155
:10628C00B3EB910F4FEA910C04D2ACEB020C9C4592
:10629C0028BF9C46BCF1000F0AD0F86800EB8203C3
:1062AC00624400EB8200316A43F8041B9842FAD135
:1062BC00AA60A0E76B68002B66D014F4702F44D052
:1062CC00EF692FB16B6A41F6661229463046B84722
:1062DC00B16B00224A4B0B40B3636A6088E76706D8
:1062EC0012D42B69002B3FF47FAF696A3046984774
:1062FC007AE72B6A002B40D063018ED52B6A30468F
:10630C00696A98473463F8BDEB68002BEDD16BE7F5
:10631C00E00640D4270708D52B68DB78032B04D183
:10632C002B68384ADB6812681A60A0077FF563AFE8
:10633C00EF69002F3FF45FAF002280E740F2ED726F
:10634C003149324804F066FA48E769683046FFF78D
:10635C0007FF0028B4D12A68002AB9D1EF69002FB1
:10636C00B6D06B6A29463046B847B1E740F26F7237
:10637C002549274804F04EFA55E740F2AD72224900
:10638C00244804F047FAB7E740F24D721E49224800
:10639C0004F040FA91E72F68736CB16CC90787D48D
:1063AC007968880703D021F0030104317960B8685B
:1063BC00C3F3074300FB01F1B3EB910F4FEA910CD0
:1063CC0004D2ACEB020C9C4528BF9C46BCF1000FE0
:1063DC003FF46EAF386900EB8203624400EB82003D
:1063EC0053F8041B83423162FAD161E701000F00BC
:1063FC00320070010050000400007011CDFF8FEED0
:10640C00FEFFF0FF0000E08178C10060F8C1006081
:10641C0020C2006038C2006008C2006070B504463B
:10642C000D46002933D0E168636ADB0720D42A7A51
:10643C00042A20D0687A092822D840F242362B6AE6
:10644C00C640F6072AD543F4D013032A2A68194804
:10645C004FEA026208BF43F4400308406D6802F043
:10646C007C5203F47B03A56002431343E36070BDCD
:10647C002B7A042BFBD1A36B23F00103A36370BD18
:10648C002B6A0438012898BF43F40033DDE74FF43E
:10649C0022720949094804F0BDF9C4E7022801D069
:1064AC00072802D143F4D813CFE70328E9D143F4EA
:1064BC001023CAE7FFFF04C078C100605CC2006013
:1064CC00F8B504460D46002972D0AB79013B1A068B
:1064DC0067D46B79013B1B065CD42B7A102B48D804
:1064EC00002C4DD0394B9C4269D003F580439C4223
:1064FC0068D0E3223649374804F08CF90323364A36
:10650C0011680027354E0B431360E36A43F0E063D8
:10651C00E362A16A2B79626C21F44C7168791B01DE
:10652C0002F0E02295F807C003F030031043AA797B
:10653C000B434FEA0C2C296840EA02402A7A0CF4EF
:10654C00F85CE56A0904120640EA0C0001F47021BB
:10655C0025F4702502F0F85229430243E16262648B
:10656C00A362A36C23F00903A3646663A763266389
:10657C00F8BD40F239321649194804F04BF9AFE72F
:10658C0040F22D421749184804F044F94FF00043EB
:10659C00164AB5E740F237320D49154804F03AF97E
:1065AC009BE740F236320A49124804F033F990E77F
:1065BC0040F235320649104804F02CF985E70C23DB
:1065CC000E4A9DE730230D4A9AE700BF00002C408D
:1065DC0078C1006038C3006068C00F4037517F1528
:1065EC0018C3006038BF0060B8BF006064C00F44BF
:1065FC00CCC200607CC200606CC2006080C00F40E6
:10660C0010B401F0B853C46A2343C362C36A19427D
:10661C0004D04AB1C36A013A0B42FAD1101E5DF89C
:10662C00044B18BF0120704710465DF8044B7047AF
:10663C0038B505460C4679B12B6C4FF400720A4DF7
:10664C004FF6FF70C3F302412B40E0608A4043F0E9
:10665C003303A260236138BD4FF4697203490448C7
:10666C0004F0D8F8E8E700BF0400F00778C1006038
:10667C005CC3006070B504460D461646B1B1EEB170
:10668C00AE4228BF2E46B5FBF6F0B0F5805F00F2A7
:10669C00BB80B5421ED228460022E16A6D4B0B40EE
:1066AC001343E362626A1307FCD570BD4FF4737237
:1066BC0069496A4804F0AEF8002EE1D1684840F20E
:1066CC00CD32654904F0A6F8B5FBF6F0B0F5805F65
:1066DC0000F29A80B5FBF0F3B34288BF013010286A
:1066EC0040F2948003094FF48072B2FBF3F203FB87
:1066FC0002F2B2F5807F01D1012B0BD14FF48071E6
:10670C000133B1FBF3F203FB02F2B2F5807FF7D158
:10671C00012BF5D0B0FBF3F103FB01F2904240F2F8
:10672C008A804E1C102E6BD81A4490427ED90F29A9
:10673C0001F1020664D01A44904277D90E2901F176
:10674C0003065DD01A44904270D90D2901F104065C
:10675C0056D01A44904269D90C2901F105064FD044
:10676C001A44904262D90B2901F1060648D01A440A
:10677C0090425BD90A2901F1070641D01A44904294
:10678C0054D9092901F108063AD01A4490424DD93E
:10679C00082901F1090633D01A44904246D9072939
:1067AC0001F10A062CD01A4490423FD9062901F176
:1067BC000B0625D01A44904238D9052901F10C0654
:1067CC001ED01A44904231D9042901F10D0617D07C
:1067DC001A4490422AD9032901F10E0610D01A440A
:1067EC00904223D9022901F10F0609D01A44904294
:1067FC001CD9012904D01A44824201D3102016E07E
:10680C005B00B3F5807F85D9002070BD10F00103CB
:10681C0018D001283FF43FAF0021421EB5FBF0F524
:10682C001201D2B2B5FBF3F00A4336E73046DA0177
:10683C0002F47F41F1E751B9DA01B5FBF3F002F450
:10684C007F422AE74308B5FBF0F01A0225E7084619
:10685C00EDE700BF0F00FFFF78C1006070C3006060
:10686C0084C30060C36A43F00063C362C36A1A0145
:10687C0004D539B1C36A01391B01FAD4081E18BFFB
:10688C000120704708467047C36AC3F3072399B1C8
:10689C00816C92015B0821F0400102F040021B0266
:1068AC008164816C0A4342F008028264C26A22F459
:1068BC007F421343C3627047826C22F008028264E9
:1068CC0013B94FF48073F1E75B029BB2EEE700BFA4
:1068DC00F8B50F4615461C460646002857D0002D25
:1068EC005DD0C5F30B03002B4ED127F04041069B26
:1068FC00012B5FD0A30702D024F0030404342F4BE8
:10690C002F4A03FB04F3B2EB333F2E4BA3FB0423C0
:10691C004FEAD3332DD20133B1EB430F4FEA430C83
:10692C0046D3002106F1040EB4F5704F224645F013
:10693C00210028BF4FF47042130322F00307A41A5E
:10694C0043F011033D4446F821304EF8210002314A
:10695C006145E9D3BCF1000F6FF0404308BF4FF025
:10696C00020C63449B00F258002042F00202F250E9
:10697C00F8BDB1EB430F4FEA430C19D3BCF1000F38
:10698C00CFD16FF00303EEE741F66810F8BD40F28B
:10699C00B3420D490D4803F03DFF002DA1D10A492A
:1069AC0040F2B4420A4803F035FF27F040419EE71D
:1069BC000320F8BD41F66B10F8BD00BFEFEEEEEE14
:1069CC00111101008988888878C1006098C3006023
:1069DC00ACC300602DE9F843089F8846054616466F
:1069EC001C4600287DD0002E00F08480B20774D1A4
:1069FC00C8F35C01A30751D1C4EB0413434AC4EBA5
:106A0C008333C4EB8333B2EBB30F414B4FEA9402A5
:106A1C00A3FB02324FEA123238BF0132012F4BD0A6
:106A2C008A424FF0000355D89342194628D24FF6AC
:106A3C00FC7EDFF8F0900BE0A4EB0E0405EBC10834
:106A4C00C8F80460664445F831000131914217D210
:106A5C0074454FF6FC7C4846EED8200424F0030C19
:106A6C001CB140F025000024E8E72E1D294C4FF402
:106A7C00802046F8314045F8310001319142F8D37D
:106A8C00012F0FD06FF0604300200B4455F83320DA
:106A9C0042F0020245F83320BDE8F88324F00304E9
:106AAC000434A9E70133002055F8332042F02102C9
:106ABC0045F83320BDE8F88329B3002302E0013305
:106ACC008B4203D055F83300C007F8D401321A4476
:106ADC008A42A9D90320BDE8F88341F66810BDE8C5
:106AEC00F88340F209520C490C4803F093FE002E37
:106AFC007FF47CAF084940F20A52094803F08AFE41
:106B0C00C8F35C0176E70B46E0E700BF0400010028
:106B1C00050001400000E08178C1006098C300606E
:106B2C00ACC300602500FCFFF8B504460D461646C4
:106B3C001F46002930D0002E36D06B6843B19A071F
:106B4C0006D1297869B9B30735D11FB3A6650CE016
:106B5C001A4940F27C521A4803F05CFE297800294D
:106B6C00F1D06B6800222260A365A26A0902154B62
:106B7C00002001F440711340A3626B78A26ADB061B
:106B8C0003F060530B431343A362A36C43F0010364
:106B9C00A364F8BD2660E8E740F27A5207490A4838
:106BAC0003F038FE002EC8D140F27B52034907484F
:106BBC0003F030FEC1E741F66810F8BD78C1006003
:106BCC00ECC30060FFFCFFC7C4C30060D8C3006007
:106BDC002DE9F041804682B00C4615461F4600292F
:106BEC0046D0636893B19B0710D1BDB1EB78EA68CE
:106BFC00032B14BF0020042062B321788618A1B99E
:106C0C00032B2CD1002002B0BDE8F08140F2BD5224
:106C1C001C491D4803F0FEFD002DE7D140F2BF5288
:106C2C0018491A4803F0F6FDE0E7D5E901320129CD
:106C3C00009702FB03F2A2EB00033246D4E90101F8
:106C4C000AD0FFF7C7FE2378032B00D0B8B102B0EF
:106C5C00BDE8F0812A69D0E7FFF73AFEF3E76B78DD
:106C6C0032462146404602B0BDE8F041FFF75CBF1A
:106C7C0040F2BC520349064803F0CCFDB1E7EB7877
:106C8C00BEE700BF78C10060ECC3006074C4006054
:106C9C0060C400602DE9F84304460D4690461E463C
:106CAC00002900F09D80002E00F0A380D6E900762C
:106CBC00002F7BD0FB78012B67D0226B12F480590C
:106CCC006DD16E602F60C5F80890B8F1000F40F0E0
:106CDC009780A36C424623F00103A364A36A23F4B8
:106CEC004073A362A36CF878032800F0B180616A4A
:106CFC00890700F19A80D7F808C0BCF5803F80F076
:106D0C00BA803969002900F0B880F96823F036039D
:106D1C0009B143F01003BCF1010F05D939780029F2
:106D2C0040F0B18043F022037978002900F087808D
:106D3C00D4F8C81043F0800341F48051C4F8C81053
:106D4C00C4F800C0022800F08C8079686068C1F338
:106D5C000C0100F4604041EA0C4101436160316A6E
:106D6C0041F400113162A3642B68002B61D0002A1E
:106D7C0034D0494B2363A26B1343A36320463146A3
:106D8C00FFF74CFB0020BDE8F883236B13F4805312
:106D9C0005D16E601A462F60AB60A36C9BE74FF475
:106DAC00805341F669102363BDE8F883236B13F419
:106DBC008053F4D16E602B60AB60A36C23F00103A5
:106DCC00A364A36A23F44073A362A36C626A23F0E6
:106DDC00B603D20729D4A3642B6853B32F4BC9E74E
:106DEC0040F266622E492F4803F014FD002E7FF40A
:106DFC005DAF40F267622A492B4803F00BFD55E763
:106E0C00FB7841463A462046C3F34003FFF7E0FEC9
:106E1C0070BB3869D7E90131002837D001FB03F189
:106E2C00FFF762F9A36C01225DE741F66410BDE83F
:106E3C00F8831E4A2263A36B1343A3639EE7D4F823
:106E4C00C81023F0800321F48051C4F8C81079E7EE
:106E5C00A36A23F48033A362A36A43F40033A362CE
:106E6C0082E7A16A43F0220341F48011A16276E724
:106E7C00A36C4A462FE7042096E7F9680029FAD05C
:106E8C0023F0360345E743F026034DE7F86801FB92
:106E9C0003F1FFF747F9C5E703007F1133007F01CA
:106EAC0078C10060F8C1006088C4006001000F0068
:106EBC00836E090223F4FE4301F4FE4119438166FB
:106ECC00836E13F0802F14BF01200020704700BF89
:106EDC00C3B11204C9B202F4E02330B4856C0B4385
:106EEC000E4C45F000758564D0F8CC20144023433B
:106EFC0043F08073C0F8CC30C36B43F4400330BC18
:106F0C00C3637047D0F8CC3023F08073C0F8CC301A
:106F1C00C36B23F44003C363704700BF00FFF8FF4B
:106F2C00F8B506460C4615461F4681B3002D36D0E3
:106F3C0028220021204603F083FDD5E900E3D5E9A2
:106F4C000201D5E90425C4E903E3C4E90501C4E958
:106F5C000725676256B3214B9E422DD003F5804323
:106F6C009E4232D0E3221E491E4803F053FC1E48B9
:106F7C001E4BE3221E4DC46019491A481D6003F0D4
:106F8C0049FC012200231B4941F82320F8BD40F2A3
:106F9C00CB721349184803F03DFC002DC8D140F2C8
:106FAC00CC720F49154803F035FCC1E70E490F4B65
:106FBC000F4A0C601A60F8BD0B4D4FF480420B4920
:106FCC0003230B486C600860DDE7074D4FF400426B
:106FDC00064903230648AC600860D4E700002C4047
:106FEC0078C1006038C300603C2400204824002095
:106FFC00DD61006000E100E0F8C100609CC400604D
:10700C00024A034B51681B68024818473C24002075
:10701C004824002000002C4010B5044670B10E220C
:10702C000021204603F00CFD00230121064A2371A8
:10703C00216063812373C4F8062010BD46220349E6
:10704C00034803F0E7FBEAE7FF000400B0C400606C
:10705C00A8C0006070B506460D46002954D0EB88D8
:10706C00AC782A7B44EA03242B78697844EAC2047E
:10707C00EA7844EA8304AB7A44EAC11444EA420451
:10708C0044EA831444F03004A4B2002E32D0294BCD
:10709C009E423FD003F5C0339E423FD02B2226495F
:1070AC00264803F0B7FB0321254A13680B431360F2
:1070BC00EFF3108272B62B7A2879E97A43EAC0335F
:1070CC009BB2F3803181348082F310882B7983B1A9
:1070DC00184B9E4226D003F5C0339E4226D02B225D
:1070EC001549164803F096FB01220023154941F877
:1070FC00232070BD40F22D421349144803F08AFB43
:10710C004FF00041124AD0E76A220B49114803F0B4
:10711C0081FBA4E74FF440310F4AC6E74FF44061BE
:10712C000E4AC2E74FF080520223DFE74FF40052C1
:10713C000123DBE700800B40B0C400602CC500606D
:10714C0068C00F4000E100E038BF0060B8BF0060CD
:10715C0064C00F44A8C0006074C00F407CC00F40D6
:10716C001C22002110B5044603F06AFC002340F2F7
:10717C000110054901222060A16022762371636110
:10718C00C4E9033310BD00BFA08601002DE9F04710
:10719C000669012503694FF0000E06EA05090F4642
:1071AC0023F001032C46F0464FF0FF364FF0020C53
:1071BC00036108E0D31AB34202D21E46A646A84683
:1071CC000134202C42D0012C45D004EB440ABCFBEA
:1071DC00F5F353440233B7FBF3F39342EAD39B1A10
:1071EC00B342EDD2002BE8D16B00802B3AD8012CA6
:1071FC004FEA04223ED9630042EA044203F03E0304
:10720C006408134343EA0464012D846437D0022DCF
:10721C0033D0042D3BD0082D37D0102D33D0202D5A
:10722C002FD0402D35D0802D08BF0725436A05F09F
:10723C00070523F007031D434562B9F1000F03D086
:10724C00036943F001030361BDE8F0876D00802DF5
:10725C000AD8B1FBF5F7BCFBF5F306330124B7FBF9
:10726C00F3F3BAE7A646A84674464546012C4FEA06
:10727C000422C0D8084C1443C6E70125D6E70025E4
:10728C00D4E70525D2E70425D0E70325CEE7022570
:10729C00CCE70625CAE700BF030002012DE9F8433D
:1072AC000D460446164600286DD0CB4B984200F094
:1072BC00C08103F58043984200F0BE8103F5804302
:1072CC00984200F0C38103F58043984200F0C281DC
:1072DC00C248A822C249032703F09CFAC148697826
:1072EC00AB78026881F00101DB003A43002743EAE6
:1072FC008103022102602161314627612361206AEA
:10730C002B7EEA7D20F0070C5B00A87D920040EA02
:10731C000C0003F0020302F004020343B2481A43C8
:10732C002262626A2B791040EA781B0640EA4220FE
:10733C00AA6803F0E063034320466362A765FFF786
:10734C0025FF676AD5F80C9007F00707D4F828805A
:10735C00B9F1000F40F0EB8095F81490B9F1000FE3
:10736C0040F0978095F81590B9F1000F43D12B6937
:10737C00C4F828808BB923692A7823F001031343BE
:10738C002361BDE8F883994840F22D4298494FF0AB
:10739C00004703F03FFA9748A1E74FEA1328002E65
:1073AC0000F0ED80002F00F0F280934A0023934907
:1073BC00B6FBF7F6A2FB062640F6FF77B609B1FB43
:1073CC00F6F10A4602E0BB4200F0228190451846D5
:1073DC000A4403F10103F6D830B908EB8808B1EB85
:1073EC00480F94BF012000200002E26A844B134036
:1073FC001843E062BFE7002E00F00F817E4B7F4AFE
:10740C00A3FB06139B09B2FBF3F2914540F2D28029
:10741C00B9EB420F4FEA420340F2228113449945E3
:10742C0040F222811344994540F22081134499453E
:10743C0040F222811344994540F22281134499452C
:10744C0040F222811344994540F22281134499451C
:10745C0040F2F9801344994540F21E81134499453A
:10746C0040F21E811344994540F21E8113444B4552
